{
  "_format": "hh-sol-artifact-1",
  "contractName": "ERC721",
  "sourceName": "contracts/ERC721.sol",
  "abi": [
    {
      "inputs": [
        {
          "internalType": "string",
          "name": "name",
          "type": "string"
        },
        {
          "internalType": "string",
          "name": "symbol",
          "type": "string"
        },
        {
          "internalType": "string",
          "name": "baseTokenURI_",
          "type": "string"
        },
        {
          "internalType": "uint256",
          "name": "maxTokens_",
          "type": "uint256"
        }
      ],
      "stateMutability": "nonpayable",
      "type": "constructor"
    },
    {
      "inputs": [
        {
          "internalType": "address",
          "name": "sender",
          "type": "address"
        },
        {
          "internalType": "uint256",
          "name": "tokenId",
          "type": "uint256"
        },
        {
          "internalType": "address",
          "name": "owner",
          "type": "address"
        }
      ],
      "name": "ERC721IncorrectOwner",
      "type": "error"
    },
    {
      "inputs": [
        {
          "internalType": "address",
          "name": "operator",
          "type": "address"
        },
        {
          "internalType": "uint256",
          "name": "tokenId",
          "type": "uint256"
        }
      ],
      "name": "ERC721InsufficientApproval",
      "type": "error"
    },
    {
      "inputs": [
        {
          "internalType": "address",
          "name": "approver",
          "type": "address"
        }
      ],
      "name": "ERC721InvalidApprover",
      "type": "error"
    },
    {
      "inputs": [
        {
          "internalType": "address",
          "name": "operator",
          "type": "address"
        }
      ],
      "name": "ERC721InvalidOperator",
      "type": "error"
    },
    {
      "inputs": [
        {
          "internalType": "address",
          "name": "owner",
          "type": "address"
        }
      ],
      "name": "ERC721InvalidOwner",
      "type": "error"
    },
    {
      "inputs": [
        {
          "internalType": "address",
          "name": "receiver",
          "type": "address"
        }
      ],
      "name": "ERC721InvalidReceiver",
      "type": "error"
    },
    {
      "inputs": [
        {
          "internalType": "address",
          "name": "sender",
          "type": "address"
        }
      ],
      "name": "ERC721InvalidSender",
      "type": "error"
    },
    {
      "inputs": [
        {
          "internalType": "uint256",
          "name": "tokenId",
          "type": "uint256"
        }
      ],
      "name": "ERC721NonexistentToken",
      "type": "error"
    },
    {
      "inputs": [
        {
          "internalType": "address",
          "name": "owner",
          "type": "address"
        }
      ],
      "name": "OwnableInvalidOwner",
      "type": "error"
    },
    {
      "inputs": [
        {
          "internalType": "address",
          "name": "account",
          "type": "address"
        }
      ],
      "name": "OwnableUnauthorizedAccount",
      "type": "error"
    },
    {
      "anonymous": false,
      "inputs": [
        {
          "indexed": true,
          "internalType": "address",
          "name": "owner",
          "type": "address"
        },
        {
          "indexed": true,
          "internalType": "address",
          "name": "approved",
          "type": "address"
        },
        {
          "indexed": true,
          "internalType": "uint256",
          "name": "tokenId",
          "type": "uint256"
        }
      ],
      "name": "Approval",
      "type": "event"
    },
    {
      "anonymous": false,
      "inputs": [
        {
          "indexed": true,
          "internalType": "address",
          "name": "owner",
          "type": "address"
        },
        {
          "indexed": true,
          "internalType": "address",
          "name": "operator",
          "type": "address"
        },
        {
          "indexed": false,
          "internalType": "bool",
          "name": "approved",
          "type": "bool"
        }
      ],
      "name": "ApprovalForAll",
      "type": "event"
    },
    {
      "anonymous": false,
      "inputs": [
        {
          "indexed": false,
          "internalType": "uint256",
          "name": "_fromTokenId",
          "type": "uint256"
        },
        {
          "indexed": false,
          "internalType": "uint256",
          "name": "_toTokenId",
          "type": "uint256"
        }
      ],
      "name": "BatchMetadataUpdate",
      "type": "event"
    },
    {
      "anonymous": false,
      "inputs": [
        {
          "indexed": false,
          "internalType": "uint256",
          "name": "_tokenId",
          "type": "uint256"
        }
      ],
      "name": "MetadataUpdate",
      "type": "event"
    },
    {
      "anonymous": false,
      "inputs": [
        {
          "indexed": true,
          "internalType": "address",
          "name": "previousOwner",
          "type": "address"
        },
        {
          "indexed": true,
          "internalType": "address",
          "name": "newOwner",
          "type": "address"
        }
      ],
      "name": "OwnershipTransferred",
      "type": "event"
    },
    {
      "anonymous": false,
      "inputs": [
        {
          "indexed": true,
          "internalType": "address",
          "name": "from",
          "type": "address"
        },
        {
          "indexed": true,
          "internalType": "address",
          "name": "to",
          "type": "address"
        },
        {
          "indexed": true,
          "internalType": "uint256",
          "name": "tokenId",
          "type": "uint256"
        }
      ],
      "name": "Transfer",
      "type": "event"
    },
    {
      "inputs": [],
      "name": "_maxTokens",
      "outputs": [
        {
          "internalType": "uint256",
          "name": "",
          "type": "uint256"
        }
      ],
      "stateMutability": "view",
      "type": "function"
    },
    {
      "inputs": [
        {
          "internalType": "address",
          "name": "to",
          "type": "address"
        },
        {
          "internalType": "uint256",
          "name": "tokenId",
          "type": "uint256"
        }
      ],
      "name": "approve",
      "outputs": [],
      "stateMutability": "nonpayable",
      "type": "function"
    },
    {
      "inputs": [
        {
          "internalType": "address",
          "name": "owner",
          "type": "address"
        }
      ],
      "name": "balanceOf",
      "outputs": [
        {
          "internalType": "uint256",
          "name": "",
          "type": "uint256"
        }
      ],
      "stateMutability": "view",
      "type": "function"
    },
    {
      "inputs": [
        {
          "internalType": "uint256",
          "name": "tokenId",
          "type": "uint256"
        }
      ],
      "name": "getApproved",
      "outputs": [
        {
          "internalType": "address",
          "name": "",
          "type": "address"
        }
      ],
      "stateMutability": "view",
      "type": "function"
    },
    {
      "inputs": [
        {
          "internalType": "address",
          "name": "owner",
          "type": "address"
        },
        {
          "internalType": "address",
          "name": "operator",
          "type": "address"
        }
      ],
      "name": "isApprovedForAll",
      "outputs": [
        {
          "internalType": "bool",
          "name": "",
          "type": "bool"
        }
      ],
      "stateMutability": "view",
      "type": "function"
    },
    {
      "inputs": [
        {
          "internalType": "address",
          "name": "to",
          "type": "address"
        }
      ],
      "name": "mint",
      "outputs": [],
      "stateMutability": "nonpayable",
      "type": "function"
    },
    {
      "inputs": [],
      "name": "name",
      "outputs": [
        {
          "internalType": "string",
          "name": "",
          "type": "string"
        }
      ],
      "stateMutability": "view",
      "type": "function"
    },
    {
      "inputs": [],
      "name": "owner",
      "outputs": [
        {
          "internalType": "address",
          "name": "",
          "type": "address"
        }
      ],
      "stateMutability": "view",
      "type": "function"
    },
    {
      "inputs": [
        {
          "internalType": "uint256",
          "name": "tokenId",
          "type": "uint256"
        }
      ],
      "name": "ownerOf",
      "outputs": [
        {
          "internalType": "address",
          "name": "",
          "type": "address"
        }
      ],
      "stateMutability": "view",
      "type": "function"
    },
    {
      "inputs": [],
      "name": "renounceOwnership",
      "outputs": [],
      "stateMutability": "nonpayable",
      "type": "function"
    },
    {
      "inputs": [
        {
          "internalType": "address",
          "name": "from",
          "type": "address"
        },
        {
          "internalType": "address",
          "name": "to",
          "type": "address"
        },
        {
          "internalType": "uint256",
          "name": "tokenId",
          "type": "uint256"
        }
      ],
      "name": "safeTransferFrom",
      "outputs": [],
      "stateMutability": "nonpayable",
      "type": "function"
    },
    {
      "inputs": [
        {
          "internalType": "address",
          "name": "from",
          "type": "address"
        },
        {
          "internalType": "address",
          "name": "to",
          "type": "address"
        },
        {
          "internalType": "uint256",
          "name": "tokenId",
          "type": "uint256"
        },
        {
          "internalType": "bytes",
          "name": "data",
          "type": "bytes"
        }
      ],
      "name": "safeTransferFrom",
      "outputs": [],
      "stateMutability": "nonpayable",
      "type": "function"
    },
    {
      "inputs": [
        {
          "internalType": "address",
          "name": "operator",
          "type": "address"
        },
        {
          "internalType": "bool",
          "name": "approved",
          "type": "bool"
        }
      ],
      "name": "setApprovalForAll",
      "outputs": [],
      "stateMutability": "nonpayable",
      "type": "function"
    },
    {
      "inputs": [
        {
          "internalType": "bytes4",
          "name": "interfaceId",
          "type": "bytes4"
        }
      ],
      "name": "supportsInterface",
      "outputs": [
        {
          "internalType": "bool",
          "name": "",
          "type": "bool"
        }
      ],
      "stateMutability": "view",
      "type": "function"
    },
    {
      "inputs": [],
      "name": "symbol",
      "outputs": [
        {
          "internalType": "string",
          "name": "",
          "type": "string"
        }
      ],
      "stateMutability": "view",
      "type": "function"
    },
    {
      "inputs": [
        {
          "internalType": "uint256",
          "name": "tokenId",
          "type": "uint256"
        }
      ],
      "name": "tokenURI",
      "outputs": [
        {
          "internalType": "string",
          "name": "",
          "type": "string"
        }
      ],
      "stateMutability": "view",
      "type": "function"
    },
    {
      "inputs": [
        {
          "internalType": "address",
          "name": "from",
          "type": "address"
        },
        {
          "internalType": "address",
          "name": "to",
          "type": "address"
        },
        {
          "internalType": "uint256",
          "name": "tokenId",
          "type": "uint256"
        }
      ],
      "name": "transferFrom",
      "outputs": [],
      "stateMutability": "nonpayable",
      "type": "function"
    },
    {
      "inputs": [
        {
          "internalType": "address",
          "name": "newOwner",
          "type": "address"
        }
      ],
      "name": "transferOwnership",
      "outputs": [],
      "stateMutability": "nonpayable",
      "type": "function"
    }
  ],
  "bytecode": "0x60806040523480156200001157600080fd5b50604051620017fe380380620017fe8339810160408190526200003491620001ca565b3384846000620000458382620002f2565b506001620000548282620002f2565b5050506001600160a01b0381166200008657604051631e4fbdf760e01b81526000600482015260240160405180910390fd5b6200009181620000b3565b506008620000a08382620002f2565b506001600955600a5550620003be915050565b600780546001600160a01b038381166001600160a01b0319831681179093556040519116919082907f8be0079c531659141344cd1fd0a4f28419497f9722a3daafe3b4186f6b6457e090600090a35050565b634e487b7160e01b600052604160045260246000fd5b600082601f8301126200012d57600080fd5b81516001600160401b03808211156200014a576200014a62000105565b604051601f8301601f19908116603f0116810190828211818310171562000175576200017562000105565b816040528381526020925086838588010111156200019257600080fd5b600091505b83821015620001b6578582018301518183018401529082019062000197565b600093810190920192909252949350505050565b60008060008060808587031215620001e157600080fd5b84516001600160401b0380821115620001f957600080fd5b62000207888389016200011b565b955060208701519150808211156200021e57600080fd5b6200022c888389016200011b565b945060408701519150808211156200024357600080fd5b5062000252878288016200011b565b606096909601519497939650505050565b600181811c908216806200027857607f821691505b6020821081036200029957634e487b7160e01b600052602260045260246000fd5b50919050565b601f821115620002ed57600081815260208120601f850160051c81016020861015620002c85750805b601f850160051c820191505b81811015620002e957828155600101620002d4565b5050505b505050565b81516001600160401b038111156200030e576200030e62000105565b62000326816200031f845462000263565b846200029f565b602080601f8311600181146200035e5760008415620003455750858301515b600019600386901b1c1916600185901b178555620002e9565b600085815260208120601f198616915b828110156200038f578886015182559484019460019091019084016200036e565b5085821015620003ae5787850151600019600388901b60f8161c191681555b5050505050600190811b01905550565b61143080620003ce6000396000f3fe608060405234801561001057600080fd5b50600436106101365760003560e01c806370a08231116100b2578063a22cb46511610081578063c87b56dd11610066578063c87b56dd14610270578063e985e9c514610283578063f2fde38b146102bf57600080fd5b8063a22cb4651461024a578063b88d4fde1461025d57600080fd5b806370a0823114610216578063715018a6146102295780638da5cb5b1461023157806395d89b411461024257600080fd5b806323b872dd11610109578063487c70fc116100ee578063487c70fc146101de5780636352211e146101f05780636a6278421461020357600080fd5b806323b872dd146101b857806342842e0e146101cb57600080fd5b806301ffc9a71461013b57806306fdde0314610163578063081812fc14610178578063095ea7b3146101a3575b600080fd5b61014e610149366004611052565b6102d2565b60405190151581526020015b60405180910390f35b61016b610316565b60405161015a91906110bf565b61018b6101863660046110d2565b6103a8565b6040516001600160a01b03909116815260200161015a565b6101b66101b1366004611107565b6103d1565b005b6101b66101c6366004611131565b6103e0565b6101b66101d9366004611131565b610489565b600a545b60405190815260200161015a565b61018b6101fe3660046110d2565b6104a9565b6101b661021136600461116d565b6104b4565b6101e261022436600461116d565b610533565b6101b6610594565b6007546001600160a01b031661018b565b61016b6105a8565b6101b6610258366004611188565b6105b7565b6101b661026b3660046111da565b6105c2565b61016b61027e3660046110d2565b6105d9565b61014e6102913660046112b6565b6001600160a01b03918216600090815260056020908152604080832093909416825291909152205460ff1690565b6101b66102cd36600461116d565b6106ea565b60006001600160e01b031982167f49064906000000000000000000000000000000000000000000000000000000001480610310575061031082610741565b92915050565b606060008054610325906112e9565b80601f0160208091040260200160405190810160405280929190818152602001828054610351906112e9565b801561039e5780601f106103735761010080835404028352916020019161039e565b820191906000526020600020905b81548152906001019060200180831161038157829003601f168201915b5050505050905090565b60006103b3826107dc565b506000828152600460205260409020546001600160a01b0316610310565b6103dc828233610815565b5050565b6001600160a01b03821661040f57604051633250574960e11b8152600060048201526024015b60405180910390fd5b600061041c838333610822565b9050836001600160a01b0316816001600160a01b031614610483576040517f64283d7b0000000000000000000000000000000000000000000000000000000081526001600160a01b0380861660048301526024820184905282166044820152606401610406565b50505050565b6104a4838383604051806020016040528060008152506105c2565b505050565b6000610310826107dc565b6104bc610928565b600a546009541061050f5760405162461bcd60e51b815260206004820152601b60248201527f416c6c20746f6b656e732068617665206265656e206d696e74656400000000006044820152606401610406565b61051b8160095461096e565b6009805490600061052b83611323565b919050555050565b60006001600160a01b038216610578576040517f89c62b6400000000000000000000000000000000000000000000000000000000815260006004820152602401610406565b506001600160a01b031660009081526003602052604090205490565b61059c610928565b6105a66000610988565b565b606060018054610325906112e9565b6103dc3383836109e7565b6105cd8484846103e0565b61048384848484610a9f565b6060600a5482111561062d5760405162461bcd60e51b815260206004820152601660248201527f546f6b656e204944206f7574206f662072616e67652e000000000000000000006044820152606401610406565b6000610638836104a9565b6001600160a01b03160361068e5760405162461bcd60e51b815260206004820152601260248201527f4e6f6e6578697374656e7420746f6b656e2e00000000000000000000000000006044820152606401610406565b6000610698610bc8565b905060008151116106b857604051806020016040528060008152506106e3565b806106c284610bd7565b6040516020016106d392919061134a565b6040516020818303038152906040525b9392505050565b6106f2610928565b6001600160a01b038116610735576040517f1e4fbdf700000000000000000000000000000000000000000000000000000000815260006004820152602401610406565b61073e81610988565b50565b60006001600160e01b031982167f80ac58cd0000000000000000000000000000000000000000000000000000000014806107a457506001600160e01b031982167f5b5e139f00000000000000000000000000000000000000000000000000000000145b8061031057507f01ffc9a7000000000000000000000000000000000000000000000000000000006001600160e01b0319831614610310565b6000818152600260205260408120546001600160a01b03168061031057604051637e27328960e01b815260048101849052602401610406565b6104a48383836001610c77565b6000828152600260205260408120546001600160a01b039081169083161561084f5761084f818486610dc2565b6001600160a01b0381161561088d5761086c600085600080610c77565b6001600160a01b038116600090815260036020526040902080546000190190555b6001600160a01b038516156108bc576001600160a01b0385166000908152600360205260409020805460010190555b600084815260026020526040808220805473ffffffffffffffffffffffffffffffffffffffff19166001600160a01b0389811691821790925591518793918516917fddf252ad1be2c89b69c2b068fc378daa952ba7f163c4a11628f55a4df523b3ef91a4949350505050565b6007546001600160a01b031633146105a6576040517f118cdaa7000000000000000000000000000000000000000000000000000000008152336004820152602401610406565b6103dc828260405180602001604052806000815250610e3f565b600780546001600160a01b0383811673ffffffffffffffffffffffffffffffffffffffff19831681179093556040519116919082907f8be0079c531659141344cd1fd0a4f28419497f9722a3daafe3b4186f6b6457e090600090a35050565b6001600160a01b038216610a32576040517f5b08ba180000000000000000000000000000000000000000000000000000000081526001600160a01b0383166004820152602401610406565b6001600160a01b03838116600081815260056020908152604080832094871680845294825291829020805460ff191686151590811790915591519182527f17307eab39ab6107e8899845ad3d59bd9653f200f220920489ca2b5937696c31910160405180910390a3505050565b6001600160a01b0383163b1561048357604051630a85bd0160e11b81526001600160a01b0384169063150b7a0290610ae19033908890879087906004016113a1565b6020604051808303816000875af1925050508015610b1c575060408051601f3d908101601f19168201909252610b19918101906113dd565b60015b610b85573d808015610b4a576040519150601f19603f3d011682016040523d82523d6000602084013e610b4f565b606091505b508051600003610b7d57604051633250574960e11b81526001600160a01b0385166004820152602401610406565b805181602001fd5b6001600160e01b03198116630a85bd0160e11b14610bc157604051633250574960e11b81526001600160a01b0385166004820152602401610406565b5050505050565b606060088054610325906112e9565b60606000610be483610e56565b600101905060008167ffffffffffffffff811115610c0457610c046111c4565b6040519080825280601f01601f191660200182016040528015610c2e576020820181803683370190505b5090508181016020015b600019017f3031323334353637383961626364656600000000000000000000000000000000600a86061a8153600a8504945084610c3857509392505050565b8080610c8b57506001600160a01b03821615155b15610d85576000610c9b846107dc565b90506001600160a01b03831615801590610cc75750826001600160a01b0316816001600160a01b031614155b8015610cf957506001600160a01b0380821660009081526005602090815260408083209387168352929052205460ff16155b15610d3b576040517fa9fbf51f0000000000000000000000000000000000000000000000000000000081526001600160a01b0384166004820152602401610406565b8115610d835783856001600160a01b0316826001600160a01b03167f8c5be1e5ebec7d5bd14f71427d1e84f3dd0314c0f7b2291e5b200ac8c7c3b92560405160405180910390a45b505b50506000908152600460205260409020805473ffffffffffffffffffffffffffffffffffffffff19166001600160a01b0392909216919091179055565b610dcd838383610f38565b6104a4576001600160a01b038316610dfb57604051637e27328960e01b815260048101829052602401610406565b6040517f177e802f0000000000000000000000000000000000000000000000000000000081526001600160a01b038316600482015260248101829052604401610406565b610e498383610fbe565b6104a46000848484610a9f565b6000807a184f03e93ff9f4daa797ed6e38ed64bf6a1f0100000000000000008310610e9f577a184f03e93ff9f4daa797ed6e38ed64bf6a1f010000000000000000830492506040015b6d04ee2d6d415b85acef81000000008310610ecb576d04ee2d6d415b85acef8100000000830492506020015b662386f26fc100008310610ee957662386f26fc10000830492506010015b6305f5e1008310610f01576305f5e100830492506008015b6127108310610f1557612710830492506004015b60648310610f27576064830492506002015b600a83106103105760010192915050565b60006001600160a01b03831615801590610fb65750826001600160a01b0316846001600160a01b03161480610f9257506001600160a01b0380851660009081526005602090815260408083209387168352929052205460ff165b80610fb657506000828152600460205260409020546001600160a01b038481169116145b949350505050565b6001600160a01b038216610fe857604051633250574960e11b815260006004820152602401610406565b6000610ff683836000610822565b90506001600160a01b038116156104a4576040517f73c6ac6e00000000000000000000000000000000000000000000000000000000815260006004820152602401610406565b6001600160e01b03198116811461073e57600080fd5b60006020828403121561106457600080fd5b81356106e38161103c565b60005b8381101561108a578181015183820152602001611072565b50506000910152565b600081518084526110ab81602086016020860161106f565b601f01601f19169290920160200192915050565b6020815260006106e36020830184611093565b6000602082840312156110e457600080fd5b5035919050565b80356001600160a01b038116811461110257600080fd5b919050565b6000806040838503121561111a57600080fd5b611123836110eb565b946020939093013593505050565b60008060006060848603121561114657600080fd5b61114f846110eb565b925061115d602085016110eb565b9150604084013590509250925092565b60006020828403121561117f57600080fd5b6106e3826110eb565b6000806040838503121561119b57600080fd5b6111a4836110eb565b9150602083013580151581146111b957600080fd5b809150509250929050565b634e487b7160e01b600052604160045260246000fd5b600080600080608085870312156111f057600080fd5b6111f9856110eb565b9350611207602086016110eb565b925060408501359150606085013567ffffffffffffffff8082111561122b57600080fd5b818701915087601f83011261123f57600080fd5b813581811115611251576112516111c4565b604051601f8201601f19908116603f01168101908382118183101715611279576112796111c4565b816040528281528a602084870101111561129257600080fd5b82602086016020830137600060208483010152809550505050505092959194509250565b600080604083850312156112c957600080fd5b6112d2836110eb565b91506112e0602084016110eb565b90509250929050565b600181811c908216806112fd57607f821691505b60208210810361131d57634e487b7160e01b600052602260045260246000fd5b50919050565b60006001820161134357634e487b7160e01b600052601160045260246000fd5b5060010190565b6000835161135c81846020880161106f565b83519083019061137081836020880161106f565b7f2e6a736f6e0000000000000000000000000000000000000000000000000000009101908152600501949350505050565b60006001600160a01b038087168352808616602084015250836040830152608060608301526113d36080830184611093565b9695505050505050565b6000602082840312156113ef57600080fd5b81516106e38161103c56fea2646970667358221220ffec0006ffe6f8ac968550348b4b38bb70f981c57092258facbe9e14dd37c17a64736f6c63430008140033",
  "linkReferences": {},
  "deployedLinkReferences": {}
}