{
  "_format": "hh-sol-artifact-1",
  "contractName": "ERC20",
  "sourceName": "contracts/erc20/ERC20.sol",
  "abi": [
    {
      "inputs": [
        {
          "internalType": "string",
          "name": "name_",
          "type": "string"
        },
        {
          "internalType": "string",
          "name": "symbol_",
          "type": "string"
        },
        {
          "internalType": "uint256",
          "name": "totalSupply_",
          "type": "uint256"
        }
      ],
      "stateMutability": "nonpayable",
      "type": "constructor"
    },
    {
      "inputs": [],
      "name": "ECDSAInvalidSignature",
      "type": "error"
    },
    {
      "inputs": [
        {
          "internalType": "uint256",
          "name": "length",
          "type": "uint256"
        }
      ],
      "name": "ECDSAInvalidSignatureLength",
      "type": "error"
    },
    {
      "inputs": [
        {
          "internalType": "bytes32",
          "name": "s",
          "type": "bytes32"
        }
      ],
      "name": "ECDSAInvalidSignatureS",
      "type": "error"
    },
    {
      "inputs": [
        {
          "internalType": "uint256",
          "name": "deadline",
          "type": "uint256"
        }
      ],
      "name": "ERC2612ExpiredSignature",
      "type": "error"
    },
    {
      "inputs": [
        {
          "internalType": "address",
          "name": "signer",
          "type": "address"
        },
        {
          "internalType": "address",
          "name": "owner",
          "type": "address"
        }
      ],
      "name": "ERC2612InvalidSigner",
      "type": "error"
    },
    {
      "inputs": [
        {
          "internalType": "address",
          "name": "account",
          "type": "address"
        },
        {
          "internalType": "uint256",
          "name": "currentNonce",
          "type": "uint256"
        }
      ],
      "name": "InvalidAccountNonce",
      "type": "error"
    },
    {
      "inputs": [],
      "name": "InvalidShortString",
      "type": "error"
    },
    {
      "inputs": [
        {
          "internalType": "string",
          "name": "str",
          "type": "string"
        }
      ],
      "name": "StringTooLong",
      "type": "error"
    },
    {
      "anonymous": false,
      "inputs": [
        {
          "indexed": true,
          "internalType": "address",
          "name": "owner",
          "type": "address"
        },
        {
          "indexed": true,
          "internalType": "address",
          "name": "spender",
          "type": "address"
        },
        {
          "indexed": false,
          "internalType": "uint256",
          "name": "value",
          "type": "uint256"
        }
      ],
      "name": "Approval",
      "type": "event"
    },
    {
      "anonymous": false,
      "inputs": [],
      "name": "EIP712DomainChanged",
      "type": "event"
    },
    {
      "anonymous": false,
      "inputs": [
        {
          "indexed": true,
          "internalType": "address",
          "name": "from",
          "type": "address"
        },
        {
          "indexed": true,
          "internalType": "address",
          "name": "to",
          "type": "address"
        },
        {
          "indexed": false,
          "internalType": "uint256",
          "name": "value",
          "type": "uint256"
        }
      ],
      "name": "Transfer",
      "type": "event"
    },
    {
      "inputs": [],
      "name": "DOMAIN_SEPARATOR",
      "outputs": [
        {
          "internalType": "bytes32",
          "name": "",
          "type": "bytes32"
        }
      ],
      "stateMutability": "view",
      "type": "function"
    },
    {
      "inputs": [
        {
          "internalType": "address",
          "name": "owner",
          "type": "address"
        },
        {
          "internalType": "address",
          "name": "spender",
          "type": "address"
        }
      ],
      "name": "allowance",
      "outputs": [
        {
          "internalType": "uint256",
          "name": "",
          "type": "uint256"
        }
      ],
      "stateMutability": "view",
      "type": "function"
    },
    {
      "inputs": [
        {
          "internalType": "address",
          "name": "spender",
          "type": "address"
        },
        {
          "internalType": "uint256",
          "name": "amount",
          "type": "uint256"
        }
      ],
      "name": "approve",
      "outputs": [
        {
          "internalType": "bool",
          "name": "",
          "type": "bool"
        }
      ],
      "stateMutability": "nonpayable",
      "type": "function"
    },
    {
      "inputs": [
        {
          "internalType": "address",
          "name": "account",
          "type": "address"
        }
      ],
      "name": "balanceOf",
      "outputs": [
        {
          "internalType": "uint256",
          "name": "",
          "type": "uint256"
        }
      ],
      "stateMutability": "view",
      "type": "function"
    },
    {
      "inputs": [],
      "name": "decimals",
      "outputs": [
        {
          "internalType": "uint8",
          "name": "",
          "type": "uint8"
        }
      ],
      "stateMutability": "view",
      "type": "function"
    },
    {
      "inputs": [
        {
          "internalType": "address",
          "name": "spender",
          "type": "address"
        },
        {
          "internalType": "uint256",
          "name": "subtractedValue",
          "type": "uint256"
        }
      ],
      "name": "decreaseAllowance",
      "outputs": [
        {
          "internalType": "bool",
          "name": "",
          "type": "bool"
        }
      ],
      "stateMutability": "nonpayable",
      "type": "function"
    },
    {
      "inputs": [],
      "name": "eip712Domain",
      "outputs": [
        {
          "internalType": "bytes1",
          "name": "fields",
          "type": "bytes1"
        },
        {
          "internalType": "string",
          "name": "name",
          "type": "string"
        },
        {
          "internalType": "string",
          "name": "version",
          "type": "string"
        },
        {
          "internalType": "uint256",
          "name": "chainId",
          "type": "uint256"
        },
        {
          "internalType": "address",
          "name": "verifyingContract",
          "type": "address"
        },
        {
          "internalType": "bytes32",
          "name": "salt",
          "type": "bytes32"
        },
        {
          "internalType": "uint256[]",
          "name": "extensions",
          "type": "uint256[]"
        }
      ],
      "stateMutability": "view",
      "type": "function"
    },
    {
      "inputs": [
        {
          "internalType": "address",
          "name": "spender",
          "type": "address"
        },
        {
          "internalType": "uint256",
          "name": "addedValue",
          "type": "uint256"
        }
      ],
      "name": "increaseAllowance",
      "outputs": [
        {
          "internalType": "bool",
          "name": "",
          "type": "bool"
        }
      ],
      "stateMutability": "nonpayable",
      "type": "function"
    },
    {
      "inputs": [],
      "name": "name",
      "outputs": [
        {
          "internalType": "string",
          "name": "",
          "type": "string"
        }
      ],
      "stateMutability": "view",
      "type": "function"
    },
    {
      "inputs": [
        {
          "internalType": "address",
          "name": "owner",
          "type": "address"
        }
      ],
      "name": "nonces",
      "outputs": [
        {
          "internalType": "uint256",
          "name": "",
          "type": "uint256"
        }
      ],
      "stateMutability": "view",
      "type": "function"
    },
    {
      "inputs": [
        {
          "internalType": "address",
          "name": "owner",
          "type": "address"
        },
        {
          "internalType": "address",
          "name": "spender",
          "type": "address"
        },
        {
          "internalType": "uint256",
          "name": "value",
          "type": "uint256"
        },
        {
          "internalType": "uint256",
          "name": "deadline",
          "type": "uint256"
        },
        {
          "internalType": "uint8",
          "name": "v",
          "type": "uint8"
        },
        {
          "internalType": "bytes32",
          "name": "r",
          "type": "bytes32"
        },
        {
          "internalType": "bytes32",
          "name": "s",
          "type": "bytes32"
        }
      ],
      "name": "permit",
      "outputs": [],
      "stateMutability": "nonpayable",
      "type": "function"
    },
    {
      "inputs": [],
      "name": "symbol",
      "outputs": [
        {
          "internalType": "string",
          "name": "",
          "type": "string"
        }
      ],
      "stateMutability": "view",
      "type": "function"
    },
    {
      "inputs": [],
      "name": "totalSupply",
      "outputs": [
        {
          "internalType": "uint256",
          "name": "",
          "type": "uint256"
        }
      ],
      "stateMutability": "view",
      "type": "function"
    },
    {
      "inputs": [
        {
          "internalType": "address",
          "name": "recipient",
          "type": "address"
        },
        {
          "internalType": "uint256",
          "name": "amount",
          "type": "uint256"
        }
      ],
      "name": "transfer",
      "outputs": [
        {
          "internalType": "bool",
          "name": "",
          "type": "bool"
        }
      ],
      "stateMutability": "nonpayable",
      "type": "function"
    },
    {
      "inputs": [
        {
          "internalType": "address",
          "name": "sender",
          "type": "address"
        },
        {
          "internalType": "address",
          "name": "recipient",
          "type": "address"
        },
        {
          "internalType": "uint256",
          "name": "amount",
          "type": "uint256"
        }
      ],
      "name": "transferFrom",
      "outputs": [
        {
          "internalType": "bool",
          "name": "",
          "type": "bool"
        }
      ],
      "stateMutability": "nonpayable",
      "type": "function"
    }
  ],
  "bytecode": "0x6101606040523480156200001257600080fd5b5060405162001a4738038062001a4783398101604081905262000035916200039e565b82604051806040016040528060018152602001603160f81b8152506200006b6000836200015260201b620006ce1790919060201c565b610120526200008881600162000152602090811b620006ce17901c565b61014052815160208084019190912060e052815190820120610100524660a0526200011660e05161010051604080517f8b73c3c69bb8fe3d512ecc4cf759cc79239f7b179b0ffacaa9a75d522b39400f60208201529081019290925260608201524660808201523060a082015260009060c00160405160208183030381529060405280519060200120905090565b60805250503060c05260066200012d8482620004a0565b5060076200013c8382620004a0565b50620001493382620001a2565b505050620005e8565b600060208351101562000172576200016a836200028b565b90506200019c565b826200018983620002ce60201b620006ff1760201c565b90620001969082620004a0565b5060ff90505b92915050565b6001600160a01b038216620001fe5760405162461bcd60e51b815260206004820152601f60248201527f45524332303a206d696e7420746f20746865207a65726f20616464726573730060448201526064015b60405180910390fd5b80600560008282546200021291906200056c565b90915550506001600160a01b03821660009081526003602052604081208054839290620002419084906200056c565b90915550506040518181526001600160a01b038316906000907fddf252ad1be2c89b69c2b068fc378daa952ba7f163c4a11628f55a4df523b3ef9060200160405180910390a35050565b600080829050601f81511115620002b9578260405163305a27a960e01b8152600401620001f591906200058e565b8051620002c682620005c3565b179392505050565b90565b634e487b7160e01b600052604160045260246000fd5b60005b8381101562000304578181015183820152602001620002ea565b50506000910152565b600082601f8301126200031f57600080fd5b81516001600160401b03808211156200033c576200033c620002d1565b604051601f8301601f19908116603f01168101908282118183101715620003675762000367620002d1565b816040528381528660208588010111156200038157600080fd5b62000394846020830160208901620002e7565b9695505050505050565b600080600060608486031215620003b457600080fd5b83516001600160401b0380821115620003cc57600080fd5b620003da878388016200030d565b94506020860151915080821115620003f157600080fd5b5062000400868287016200030d565b925050604084015190509250925092565b600181811c908216806200042657607f821691505b6020821081036200044757634e487b7160e01b600052602260045260246000fd5b50919050565b601f8211156200049b57600081815260208120601f850160051c81016020861015620004765750805b601f850160051c820191505b81811015620004975782815560010162000482565b5050505b505050565b81516001600160401b03811115620004bc57620004bc620002d1565b620004d481620004cd845462000411565b846200044d565b602080601f8311600181146200050c5760008415620004f35750858301515b600019600386901b1c1916600185901b17855562000497565b600085815260208120601f198616915b828110156200053d578886015182559484019460019091019084016200051c565b50858210156200055c5787850151600019600388901b60f8161c191681555b5050505050600190811b01905550565b808201808211156200019c57634e487b7160e01b600052601160045260246000fd5b6020815260008251806020840152620005af816040850160208701620002e7565b601f01601f19169190910160400192915050565b80516020808301519190811015620004475760001960209190910360031b1b16919050565b60805160a05160c05160e051610100516101205161014051611404620006436000396000610bd101526000610ba401526000610b4c01526000610b2401526000610a7f01526000610aa901526000610ad301526114046000f3fe608060405234801561001057600080fd5b50600436106100f55760003560e01c806370a0823111610097578063a457c2d711610066578063a457c2d7146101e9578063a9059cbb146101fc578063d505accf1461020f578063dd62ed3e1461022457600080fd5b806370a082311461018a5780637ecebe00146101b357806384b0196e146101c657806395d89b41146101e157600080fd5b806323b872dd116100d357806323b872dd1461014d578063313ce567146101605780633644e5151461016f578063395093511461017757600080fd5b806306fdde03146100fa578063095ea7b31461011857806318160ddd1461013b575b600080fd5b61010261025d565b60405161010f9190611005565b60405180910390f35b61012b61012636600461103b565b6102ef565b604051901515815260200161010f565b6005545b60405190815260200161010f565b61012b61015b366004611065565b610306565b6040516012815260200161010f565b61013f6103ca565b61012b61018536600461103b565b6103d9565b61013f6101983660046110a1565b6001600160a01b031660009081526003602052604090205490565b61013f6101c13660046110a1565b610415565b6101ce610433565b60405161010f97969594939291906110bc565b610102610495565b61012b6101f736600461103b565b6104a4565b61012b61020a36600461103b565b610555565b61022261021d36600461116e565b610562565b005b61013f6102323660046111e1565b6001600160a01b03918216600090815260046020908152604080832093909416825291909152205490565b60606006805461026c90611214565b80601f016020809104026020016040519081016040528092919081815260200182805461029890611214565b80156102e55780601f106102ba576101008083540402835291602001916102e5565b820191906000526020600020905b8154815290600101906020018083116102c857829003601f168201915b5050505050905090565b60006102fc338484610702565b5060015b92915050565b600061031384848461085a565b6001600160a01b0384166000908152600460209081526040808320338452909152902054828110156103b25760405162461bcd60e51b815260206004820152602860248201527f45524332303a207472616e7366657220616d6f756e742065786365656473206160448201527f6c6c6f77616e636500000000000000000000000000000000000000000000000060648201526084015b60405180910390fd5b6103bf8533858403610702565b506001949350505050565b60006103d4610a72565b905090565b3360008181526004602090815260408083206001600160a01b038716845290915281205490916102fc91859061041090869061124e565b610702565b6001600160a01b038116600090815260026020526040812054610300565b600060608060008060006060610447610b9d565b61044f610bca565b604080516000808252602082019092527f0f000000000000000000000000000000000000000000000000000000000000009b939a50919850469750309650945092509050565b60606007805461026c90611214565b3360009081526004602090815260408083206001600160a01b03861684529091528120548281101561053e5760405162461bcd60e51b815260206004820152602560248201527f45524332303a2064656372656173656420616c6c6f77616e63652062656c6f7760448201527f207a65726f00000000000000000000000000000000000000000000000000000060648201526084016103a9565b61054b3385858403610702565b5060019392505050565b60006102fc33848461085a565b8342111561059f576040517f62791302000000000000000000000000000000000000000000000000000000008152600481018590526024016103a9565b60007f6e71edae12b1b97f4d1f60370fef10105fa2faae0126114a169c64845d6126c98888886105ec8c6001600160a01b0316600090815260026020526040902080546001810190915590565b6040805160208101969096526001600160a01b0394851690860152929091166060840152608083015260a082015260c0810186905260e001604051602081830303815290604052805190602001209050600061064782610bf7565b9050600061065782878787610c3f565b9050896001600160a01b0316816001600160a01b0316146106b7576040517f4b800e460000000000000000000000000000000000000000000000000000000081526001600160a01b0380831660048301528b1660248201526044016103a9565b6106c28a8a8a610702565b50505050505050505050565b60006020835110156106ea576106e383610c6d565b9050610300565b816106f584826112d4565b5060ff9050610300565b90565b6001600160a01b03831661077d5760405162461bcd60e51b8152602060048201526024808201527f45524332303a20617070726f76652066726f6d20746865207a65726f2061646460448201527f726573730000000000000000000000000000000000000000000000000000000060648201526084016103a9565b6001600160a01b0382166107f95760405162461bcd60e51b815260206004820152602260248201527f45524332303a20617070726f766520746f20746865207a65726f20616464726560448201527f737300000000000000000000000000000000000000000000000000000000000060648201526084016103a9565b6001600160a01b0383811660008181526004602090815260408083209487168084529482529182902085905590518481527f8c5be1e5ebec7d5bd14f71427d1e84f3dd0314c0f7b2291e5b200ac8c7c3b925910160405180910390a3505050565b6001600160a01b0383166108d65760405162461bcd60e51b815260206004820152602560248201527f45524332303a207472616e736665722066726f6d20746865207a65726f20616460448201527f647265737300000000000000000000000000000000000000000000000000000060648201526084016103a9565b6001600160a01b0382166109525760405162461bcd60e51b815260206004820152602360248201527f45524332303a207472616e7366657220746f20746865207a65726f206164647260448201527f657373000000000000000000000000000000000000000000000000000000000060648201526084016103a9565b6001600160a01b038316600090815260036020526040902054818110156109e15760405162461bcd60e51b815260206004820152602660248201527f45524332303a207472616e7366657220616d6f756e742065786365656473206260448201527f616c616e6365000000000000000000000000000000000000000000000000000060648201526084016103a9565b6001600160a01b03808516600090815260036020526040808220858503905591851681529081208054849290610a1890849061124e565b92505081905550826001600160a01b0316846001600160a01b03167fddf252ad1be2c89b69c2b068fc378daa952ba7f163c4a11628f55a4df523b3ef84604051610a6491815260200190565b60405180910390a350505050565b6000306001600160a01b037f000000000000000000000000000000000000000000000000000000000000000016148015610acb57507f000000000000000000000000000000000000000000000000000000000000000046145b15610af557507f000000000000000000000000000000000000000000000000000000000000000090565b6103d4604080517f8b73c3c69bb8fe3d512ecc4cf759cc79239f7b179b0ffacaa9a75d522b39400f60208201527f0000000000000000000000000000000000000000000000000000000000000000918101919091527f000000000000000000000000000000000000000000000000000000000000000060608201524660808201523060a082015260009060c00160405160208183030381529060405280519060200120905090565b60606103d47f00000000000000000000000000000000000000000000000000000000000000006000610cc4565b60606103d47f00000000000000000000000000000000000000000000000000000000000000006001610cc4565b6000610300610c04610a72565b836040517f19010000000000000000000000000000000000000000000000000000000000008152600281019290925260228201526042902090565b600080600080610c5188888888610d68565b925092509250610c618282610e37565b50909695505050505050565b600080829050601f81511115610cb157826040517f305a27a90000000000000000000000000000000000000000000000000000000081526004016103a99190611005565b8051610cbc82611394565b179392505050565b606060ff8314610cd7576106e383610f3f565b818054610ce390611214565b80601f0160208091040260200160405190810160405280929190818152602001828054610d0f90611214565b8015610d5c5780601f10610d3157610100808354040283529160200191610d5c565b820191906000526020600020905b815481529060010190602001808311610d3f57829003601f168201915b50505050509050610300565b600080807f7fffffffffffffffffffffffffffffff5d576e7357a4501ddfe92f46681b20a0841115610da35750600091506003905082610e2d565b604080516000808252602082018084528a905260ff891692820192909252606081018790526080810186905260019060a0016020604051602081039080840390855afa158015610df7573d6000803e3d6000fd5b5050604051601f1901519150506001600160a01b038116610e2357506000925060019150829050610e2d565b9250600091508190505b9450945094915050565b6000826003811115610e4b57610e4b6113b8565b03610e54575050565b6001826003811115610e6857610e686113b8565b03610e9f576040517ff645eedf00000000000000000000000000000000000000000000000000000000815260040160405180910390fd5b6002826003811115610eb357610eb36113b8565b03610eed576040517ffce698f7000000000000000000000000000000000000000000000000000000008152600481018290526024016103a9565b6003826003811115610f0157610f016113b8565b03610f3b576040517fd78bce0c000000000000000000000000000000000000000000000000000000008152600481018290526024016103a9565b5050565b60606000610f4c83610f7e565b604080516020808252818301909252919250600091906020820181803683375050509182525060208101929092525090565b600060ff8216601f811115610300576040517fb3512b0c00000000000000000000000000000000000000000000000000000000815260040160405180910390fd5b6000815180845260005b81811015610fe557602081850181015186830182015201610fc9565b506000602082860101526020601f19601f83011685010191505092915050565b6020815260006110186020830184610fbf565b9392505050565b80356001600160a01b038116811461103657600080fd5b919050565b6000806040838503121561104e57600080fd5b6110578361101f565b946020939093013593505050565b60008060006060848603121561107a57600080fd5b6110838461101f565b92506110916020850161101f565b9150604084013590509250925092565b6000602082840312156110b357600080fd5b6110188261101f565b7fff00000000000000000000000000000000000000000000000000000000000000881681526000602060e0818401526110f860e084018a610fbf565b838103604085015261110a818a610fbf565b606085018990526001600160a01b038816608086015260a0850187905284810360c0860152855180825283870192509083019060005b8181101561115c57835183529284019291840191600101611140565b50909c9b505050505050505050505050565b600080600080600080600060e0888a03121561118957600080fd5b6111928861101f565b96506111a06020890161101f565b95506040880135945060608801359350608088013560ff811681146111c457600080fd5b9699959850939692959460a0840135945060c09093013592915050565b600080604083850312156111f457600080fd5b6111fd8361101f565b915061120b6020840161101f565b90509250929050565b600181811c9082168061122857607f821691505b60208210810361124857634e487b7160e01b600052602260045260246000fd5b50919050565b8082018082111561030057634e487b7160e01b600052601160045260246000fd5b634e487b7160e01b600052604160045260246000fd5b601f8211156112cf57600081815260208120601f850160051c810160208610156112ac5750805b601f850160051c820191505b818110156112cb578281556001016112b8565b5050505b505050565b815167ffffffffffffffff8111156112ee576112ee61126f565b611302816112fc8454611214565b84611285565b602080601f831160018114611337576000841561131f5750858301515b600019600386901b1c1916600185901b1785556112cb565b600085815260208120601f198616915b8281101561136657888601518255948401946001909101908401611347565b50858210156113845787850151600019600388901b60f8161c191681555b5050505050600190811b01905550565b805160208083015191908110156112485760001960209190910360031b1b16919050565b634e487b7160e01b600052602160045260246000fdfea264697066735822122077a894b2de9bb7fbe8b90e93db6a19fc5800e6a1b6a8d997b82057ad0a64981464736f6c63430008110033",
  "linkReferences": {},
  "deployedLinkReferences": {}
}